{"src/facets/Test1Facet.sol":{"Test1Facet":{"abi":[{"anonymous":false,"inputs":[{"indexed":false,"internalType":"address","name":"something","type":"address"}],"name":"TestEvent","type":"event"},{"inputs":[{"internalType":"bytes4","name":"_interfaceID","type":"bytes4"}],"name":"supportsInterface","outputs":[{"internalType":"bool","name":"","type":"bool"}],"stateMutability":"view","type":"function"},{"inputs":[],"name":"test1Func1","outputs":[{"internalType":"uint256","name":"","type":"uint256"}],"stateMutability":"pure","type":"function"},{"inputs":[],"name":"test1Func10","outputs":[{"internalType":"uint256","name":"","type":"uint256"}],"stateMutability":"pure","type":"function"},{"inputs":[],"name":"test1Func2","outputs":[{"internalType":"uint256","name":"","type":"uint256"}],"stateMutability":"pure","type":"function"},{"inputs":[],"name":"test1Func3","outputs":[{"internalType":"uint256","name":"","type":"uint256"}],"stateMutability":"pure","type":"function"},{"inputs":[],"name":"test1Func4","outputs":[{"internalType":"uint256","name":"","type":"uint256"}],"stateMutability":"pure","type":"function"},{"inputs":[],"name":"test1Func5","outputs":[{"internalType":"uint256","name":"","type":"uint256"}],"stateMutability":"pure","type":"function"},{"inputs":[],"name":"test1Func6","outputs":[{"internalType":"uint256","name":"","type":"uint256"}],"stateMutability":"pure","type":"function"},{"inputs":[],"name":"test1Func7","outputs":[{"internalType":"uint256","name":"","type":"uint256"}],"stateMutability":"pure","type":"function"},{"inputs":[],"name":"test1Func8","outputs":[{"internalType":"uint256","name":"","type":"uint256"}],"stateMutability":"pure","type":"function"},{"inputs":[],"name":"test1Func9","outputs":[{"internalType":"uint256","name":"","type":"uint256"}],"stateMutability":"pure","type":"function"}],"devdoc":{"kind":"dev","methods":{},"version":1},"evm":{"bytecode":{"linkReferences":{},"object":"608060405234801561001057600080fd5b506101c6806100206000396000f3fe608060405234801561001057600080fd5b50600436106100c95760003560e01c806371a99d6f11610081578063cd0bae091161005b578063cd0bae0914610132578063cf3bbe1814610139578063db32da151461014057600080fd5b806371a99d6f1461011d57806387952d2214610124578063cbb835f61461012b57600080fd5b806311046047116100b2578063110460471461010857806319e3b5331461010f57806324c1d5a71461011657600080fd5b806301ffc9a7146100ce5780630716c2ae146100f7575b600080fd5b6100e26100dc366004610147565b50600090565b60405190151581526020015b60405180910390f35b60025b6040519081526020016100ee565b60036100fa565b60016100fa565b60056100fa565b60076100fa565b600a6100fa565b60066100fa565b60096100fa565b60046100fa565b60086100fa565b60006020828403121561015957600080fd5b81357fffffffff000000000000000000000000000000000000000000000000000000008116811461018957600080fd5b939250505056fea2646970667358221220b46dafb42ad3571e67bcd92f24d40e15c7ee8bf9d0a68943bb6fb6ce819e0cd464736f6c634300080d0033","opcodes":"PUSH1 0x80 PUSH1 0x40 MSTORE CALLVALUE DUP1 ISZERO PUSH2 0x10 JUMPI PUSH1 0x0 DUP1 REVERT JUMPDEST POP PUSH2 0x1C6 DUP1 PUSH2 0x20 PUSH1 0x0 CODECOPY PUSH1 0x0 RETURN INVALID PUSH1 0x80 PUSH1 0x40 MSTORE CALLVALUE DUP1 ISZERO PUSH2 0x10 JUMPI PUSH1 0x0 DUP1 REVERT JUMPDEST POP PUSH1 0x4 CALLDATASIZE LT PUSH2 0xC9 JUMPI PUSH1 0x0 CALLDATALOAD PUSH1 0xE0 SHR DUP1 PUSH4 0x71A99D6F GT PUSH2 0x81 JUMPI DUP1 PUSH4 0xCD0BAE09 GT PUSH2 0x5B JUMPI DUP1 PUSH4 0xCD0BAE09 EQ PUSH2 0x132 JUMPI DUP1 PUSH4 0xCF3BBE18 EQ PUSH2 0x139 JUMPI DUP1 PUSH4 0xDB32DA15 EQ PUSH2 0x140 JUMPI PUSH1 0x0 DUP1 REVERT JUMPDEST DUP1 PUSH4 0x71A99D6F EQ PUSH2 0x11D JUMPI DUP1 PUSH4 0x87952D22 EQ PUSH2 0x124 JUMPI DUP1 PUSH4 0xCBB835F6 EQ PUSH2 0x12B JUMPI PUSH1 0x0 DUP1 REVERT JUMPDEST DUP1 PUSH4 0x11046047 GT PUSH2 0xB2 JUMPI DUP1 PUSH4 0x11046047 EQ PUSH2 0x108 JUMPI DUP1 PUSH4 0x19E3B533 EQ PUSH2 0x10F JUMPI DUP1 PUSH4 0x24C1D5A7 EQ PUSH2 0x116 JUMPI PUSH1 0x0 DUP1 REVERT JUMPDEST DUP1 PUSH4 0x1FFC9A7 EQ PUSH2 0xCE JUMPI DUP1 PUSH4 0x716C2AE EQ PUSH2 0xF7 JUMPI JUMPDEST PUSH1 0x0 DUP1 REVERT JUMPDEST PUSH2 0xE2 PUSH2 0xDC CALLDATASIZE PUSH1 0x4 PUSH2 0x147 JUMP JUMPDEST POP PUSH1 0x0 SWAP1 JUMP JUMPDEST PUSH1 0x40 MLOAD SWAP1 ISZERO ISZERO DUP2 MSTORE PUSH1 0x20 ADD JUMPDEST PUSH1 0x40 MLOAD DUP1 SWAP2 SUB SWAP1 RETURN JUMPDEST PUSH1 0x2 JUMPDEST PUSH1 0x40 MLOAD SWAP1 DUP2 MSTORE PUSH1 0x20 ADD PUSH2 0xEE JUMP JUMPDEST PUSH1 0x3 PUSH2 0xFA JUMP JUMPDEST PUSH1 0x1 PUSH2 0xFA JUMP JUMPDEST PUSH1 0x5 PUSH2 0xFA JUMP JUMPDEST PUSH1 0x7 PUSH2 0xFA JUMP JUMPDEST PUSH1 0xA PUSH2 0xFA JUMP JUMPDEST PUSH1 0x6 PUSH2 0xFA JUMP JUMPDEST PUSH1 0x9 PUSH2 0xFA JUMP JUMPDEST PUSH1 0x4 PUSH2 0xFA JUMP JUMPDEST PUSH1 0x8 PUSH2 0xFA JUMP JUMPDEST PUSH1 0x0 PUSH1 0x20 DUP3 DUP5 SUB SLT ISZERO PUSH2 0x159 JUMPI PUSH1 0x0 DUP1 REVERT JUMPDEST DUP2 CALLDATALOAD PUSH32 0xFFFFFFFF00000000000000000000000000000000000000000000000000000000 DUP2 AND DUP2 EQ PUSH2 0x189 JUMPI PUSH1 0x0 DUP1 REVERT JUMPDEST SWAP4 SWAP3 POP POP POP JUMP INVALID LOG2 PUSH5 0x6970667358 0x22 SLT KECCAK256 0xB4 PUSH14 0xAFB42AD3571E67BCD92F24D40E15 0xC7 0xEE DUP12 0xF9 0xD0 0xA6 DUP10 NUMBER 0xBB PUSH16 0xB6CE819E0CD464736F6C634300080D00 CALLER "},"gasEstimates":{"creation":{"codeDepositCost":"90800","executionCost":"141","totalCost":"90941"},"external":{"supportsInterface(bytes4)":"327","test1Func1()":"237","test1Func10()":"237","test1Func2()":"227","test1Func3()":"215","test1Func4()":"236","test1Func5()":"259","test1Func6()":"259","test1Func7()":"215","test1Func8()":"258","test1Func9()":"214"}},"methodIdentifiers":{"supportsInterface(bytes4)":"01ffc9a7","test1Func1()":"19e3b533","test1Func10()":"87952d22","test1Func2()":"0716c2ae","test1Func3()":"11046047","test1Func4()":"cf3bbe18","test1Func5()":"24c1d5a7","test1Func6()":"cbb835f6","test1Func7()":"71a99d6f","test1Func8()":"db32da15","test1Func9()":"cd0bae09"}},"storageLayout":{"storage":[],"types":null},"userdoc":{"kind":"user","methods":{},"version":1}}}}